{
  "contractName": "Transaction",
  "abi": [
    {
      "anonymous": false,
      "inputs": [
        {
          "indexed": false,
          "internalType": "address",
          "name": "from",
          "type": "address"
        },
        {
          "indexed": false,
          "internalType": "address",
          "name": "to",
          "type": "address"
        },
        {
          "indexed": false,
          "internalType": "uint256",
          "name": "amount",
          "type": "uint256"
        },
        {
          "indexed": false,
          "internalType": "string",
          "name": "category",
          "type": "string"
        }
      ],
      "name": "EtherTransferred",
      "type": "event"
    },
    {
      "inputs": [],
      "name": "maxTransferAmount",
      "outputs": [
        {
          "internalType": "uint256",
          "name": "",
          "type": "uint256"
        }
      ],
      "stateMutability": "view",
      "type": "function",
      "constant": true
    },
    {
      "inputs": [
        {
          "internalType": "uint256",
          "name": "_maxTransferAmount",
          "type": "uint256"
        }
      ],
      "name": "setMaxTransferAmount",
      "outputs": [],
      "stateMutability": "nonpayable",
      "type": "function"
    },
    {
      "inputs": [
        {
          "internalType": "address payable",
          "name": "to",
          "type": "address"
        },
        {
          "internalType": "string",
          "name": "category",
          "type": "string"
        }
      ],
      "name": "transferEther",
      "outputs": [],
      "stateMutability": "payable",
      "type": "function",
      "payable": true
    }
  ],
  "bytecode": "0x608060405268056bc75e2d631000005f5534801561001b575f80fd5b506107db806100295f395ff3fe608060405260043610610033575f3560e01c80630999bcc3146100375780638bf5540914610053578063a9e757231461007b575b5f80fd5b610051600480360381019061004c91906103e7565b6100a5565b005b34801561005e575f80fd5b5061007960048036038101906100749190610474565b610232565b005b348015610086575f80fd5b5061008f61023b565b60405161009c91906104ae565b60405180910390f35b5f3490505f548111156100ed576040517f08c379a00000000000000000000000000000000000000000000000000000000081526004016100e490610547565b60405180910390fd5b803373ffffffffffffffffffffffffffffffffffffffff16311015610147576040517f08c379a000000000000000000000000000000000000000000000000000000000815260040161013e906105af565b60405180910390fd5b5f8373ffffffffffffffffffffffffffffffffffffffff168260405161016c906105fa565b5f6040518083038185875af1925050503d805f81146101a6576040519150601f19603f3d011682016040523d82523d5f602084013e6101ab565b606091505b50509050806101ef576040517f08c379a00000000000000000000000000000000000000000000000000000000081526004016101e690610658565b60405180910390fd5b7f29e5bacd77799fafb0e30bbaa4e2d532a3630e0daba82f57d70f97873914c5fd33858486604051610224949392919061075b565b60405180910390a150505050565b805f8190555050565b5f5481565b5f604051905090565b5f80fd5b5f80fd5b5f73ffffffffffffffffffffffffffffffffffffffff82169050919050565b5f61027a82610251565b9050919050565b61028a81610270565b8114610294575f80fd5b50565b5f813590506102a581610281565b92915050565b5f80fd5b5f80fd5b5f601f19601f8301169050919050565b7f4e487b71000000000000000000000000000000000000000000000000000000005f52604160045260245ffd5b6102f9826102b3565b810181811067ffffffffffffffff82111715610318576103176102c3565b5b80604052505050565b5f61032a610240565b905061033682826102f0565b919050565b5f67ffffffffffffffff821115610355576103546102c3565b5b61035e826102b3565b9050602081019050919050565b828183375f83830152505050565b5f61038b6103868461033b565b610321565b9050828152602081018484840111156103a7576103a66102af565b5b6103b284828561036b565b509392505050565b5f82601f8301126103ce576103cd6102ab565b5b81356103de848260208601610379565b91505092915050565b5f80604083850312156103fd576103fc610249565b5b5f61040a85828601610297565b925050602083013567ffffffffffffffff81111561042b5761042a61024d565b5b610437858286016103ba565b9150509250929050565b5f819050919050565b61045381610441565b811461045d575f80fd5b50565b5f8135905061046e8161044a565b92915050565b5f6020828403121561048957610488610249565b5b5f61049684828501610460565b91505092915050565b6104a881610441565b82525050565b5f6020820190506104c15f83018461049f565b92915050565b5f82825260208201905092915050565b7f596f75206861766520657863656564656420746865206d6178696d756d2074725f8201527f616e7366657220616d6f756e7400000000000000000000000000000000000000602082015250565b5f610531602d836104c7565b915061053c826104d7565b604082019050919050565b5f6020820190508181035f83015261055e81610525565b9050919050565b7f596f7520646f6e2774206861766520656e6f7567682062616c616e63650000005f82015250565b5f610599601d836104c7565b91506105a482610565565b602082019050919050565b5f6020820190508181035f8301526105c68161058d565b9050919050565b5f81905092915050565b50565b5f6105e55f836105cd565b91506105f0826105d7565b5f82019050919050565b5f610604826105da565b9150819050919050565b7f4574686572207472616e73666572206661696c656400000000000000000000005f82015250565b5f6106426015836104c7565b915061064d8261060e565b602082019050919050565b5f6020820190508181035f83015261066f81610636565b9050919050565b5f61068082610251565b9050919050565b61069081610676565b82525050565b5f819050919050565b5f6106b96106b46106af84610251565b610696565b610251565b9050919050565b5f6106ca8261069f565b9050919050565b5f6106db826106c0565b9050919050565b6106eb816106d1565b82525050565b5f81519050919050565b5f5b838110156107185780820151818401526020810190506106fd565b5f8484015250505050565b5f61072d826106f1565b61073781856104c7565b93506107478185602086016106fb565b610750816102b3565b840191505092915050565b5f60808201905061076e5f830187610687565b61077b60208301866106e2565b610788604083018561049f565b818103606083015261079a8184610723565b90509594505050505056fea26469706673582212206b6715d296ab862577448171f25fccae4c36ed38b0037cc82b95c3e43f3935b664736f6c63430008150033",
  "immutableReferences": {},
  "source": "// SPDX-License-Identifier: GPL-3.0\r\npragma solidity >=0.5.0 <0.9.0;\r\n\r\n\r\ncontract Transaction {\r\n\r\n    uint256 public maxTransferAmount = 100 ether;\r\n\r\n    event EtherTransferred(address from, address to, uint256 amount, string category);\r\n\r\n\r\n\r\n    function setMaxTransferAmount(uint256 _maxTransferAmount) external {\r\n        \r\n        maxTransferAmount = _maxTransferAmount;\r\n    }\r\n\r\n    function transferEther(address payable  to, string memory category) external payable  {\r\n        uint amount = msg.value;\r\n        require(amount <= maxTransferAmount, \"You have exceeded the maximum transfer amount\");\r\n        require(msg.sender.balance >= amount, \"You don't have enough balance\");\r\n\r\n        // Transfer Ether\r\n        (bool success, ) = to.call{value: amount}(\"\");\r\n        require(success, \"Ether transfer failed\");\r\n\r\n        emit EtherTransferred(msg.sender, to, amount, category);\r\n  }\r\n}\r\n",
  "sourcePath": "C:\\src\\family_wallet (10)\\contracts\\Transaction.sol",
  "compiler": {
    "name": "solc",
    "version": "0.8.21+commit.d9974bed.Emscripten.clang"
  },
  "schemaVersion": "3.4.16",
  "updatedAt": "2024-05-03T18:38:36.388Z",
  "networkType": "ethereum",
  "devdoc": {
    "kind": "dev",
    "methods": {},
    "version": 1
  },
  "userdoc": {
    "kind": "user",
    "methods": {},
    "version": 1
  }
}